{
  "transactions": [
    {
      "hash": "0xa2da3700819f8ba8759aca426f7b56a43933364e8fcc539be60b7af600724c37",
      "transactionType": "CREATE",
      "contractName": "ReputationOracle",
      "contractAddress": "0xb3af55a046ac669642a8fff10fc6492c22c17235",
      "function": null,
      "arguments": null,
      "transaction": {
        "from": "0x872989f7fcd4048aca370161989d3904e37a3cb3",
        "gas": "0x11cc16",
        "value": "0x0",
        "input": "0x608060405234801561000f575f80fd5b50338061003557604051631e4fbdf760e01b81525f600482015260240160405180910390fd5b61003e8161005d565b50335f908152600460205260409020805460ff191660011790556100ac565b5f80546001600160a01b038381166001600160a01b0319831681178455604051919092169283917f8be0079c531659141344cd1fd0a4f28419497f9722a3daafe3b4186f6b6457e09190a35050565b610e5e806100b95f395ff3fe608060405234801561000f575f80fd5b5060043610610131575f3560e01c8063b46b1276116100b4578063df65e9e411610079578063df65e9e414610285578063e145447c1461028e578063e5962195146102a1578063ee0fcc75146102c3578063f2fde38b146102d6578063fbac3951146102e9575f80fd5b8063b46b127614610231578063b89f29ab14610244578063cfdbf25414610257578063d3ec35b71461025f578063d47875d014610272575f80fd5b806354a055c1116100fa57806354a055c1146101ab578063715018a6146101dd57806376dd110f146101e55780638da5cb5b14610204578063a5a8a8841461021e575f80fd5b80620af2a1146101355780631a1533911461014a57806322eb82af1461015d57806327ff62231461018f57806337edbcc914610198575b5f80fd5b610148610143366004610c91565b610314565b005b610148610158366004610c91565b6103e1565b61017c61016b366004610cca565b60026020525f908152604090205481565b6040519081526020015b60405180910390f35b61017c6103e881565b61017c6101a6366004610cca565b610467565b6101cd6101b9366004610cca565b60046020525f908152604090205460ff1681565b6040519015158152602001610186565b610148610496565b61017c6101f3366004610cca565b60016020525f908152604090205481565b5f546040516001600160a01b039091168152602001610186565b6101cd61022c366004610ce3565b6104a9565b61014861023f366004610ce3565b6104fb565b610148610252366004610ce3565b610613565b61017c603281565b61014861026d366004610ce3565b61070a565b61017c610280366004610cca565b610819565b61017c6101f481565b61014861029c366004610d53565b61086f565b6101cd6102af366004610cca565b60036020525f908152604090205460ff1681565b6101486102d1366004610ce3565b610adc565b6101486102e4366004610cca565b610bbe565b6101cd6102f7366004610cca565b6001600160a01b03165f9081526003602052604090205460ff1690565b335f9081526004602052604090205460ff1615801561033d57505f546001600160a01b03163314155b1561035b5760405163ea8e4eb560e01b815260040160405180910390fd5b6001600160a01b0382166103825760405163d92e233d60e01b815260040160405180910390fd5b6001600160a01b0382165f81815260036020908152604091829020805460ff191685151590811790915591519182527f8e70e14e471dbdcf264ee2e89920955b49947c20c78a6685e48793d50e75a0b491015b60405180910390a25050565b6103e9610bfb565b6001600160a01b0382166104105760405163d92e233d60e01b815260040160405180910390fd5b6001600160a01b0382165f81815260046020908152604091829020805460ff191685151590811790915591519182527f9e0f3fc17a5f47bd46f3cab56d4d8a9ea9f32ad817657c3ea8e5dff28da3e3e791016103d5565b6001600160a01b0381165f9081526002602052604081205480820361049057506101f492915050565b92915050565b61049e610bfb565b6104a75f610c27565b565b6001600160a01b0382165f90815260016020526040812054801580156104e757506001600160a01b0384165f9081526003602052604090205460ff16155b156104f157506101f45b9091111592915050565b335f9081526004602052604090205460ff1615801561052457505f546001600160a01b03163314155b156105425760405163ea8e4eb560e01b815260040160405180910390fd5b6001600160a01b0382166105695760405163d92e233d60e01b815260040160405180910390fd5b6001600160a01b0382165f9081526003602052604090205460ff1661060f576001600160a01b0382165f90815260016020526040812054908190036105ad57506101f45b5f8282116105bb575f6105c5565b6105c58383610dce565b6001600160a01b0385165f81815260016020908152604091829020849055815186815290810184905292935033925f80516020610e0983398151915291015b60405180910390a350505b5050565b335f9081526004602052604090205460ff1615801561063c57505f546001600160a01b03163314155b1561065a5760405163ea8e4eb560e01b815260040160405180910390fd5b6001600160a01b0382166106815760405163d92e233d60e01b815260040160405180910390fd5b6103e88111156106ac576040516367851c5360e01b8152600481018290526024015b60405180910390fd5b6001600160a01b0382165f81815260026020908152604091829020805490859055825181815291820185905292917fd47b9745b5f26773d0d6d09a3cd67dfa7dbecf9000dd6d3aa57aabbbfbc1487d910160405180910390a2505050565b335f9081526004602052604090205460ff1615801561073357505f546001600160a01b03163314155b156107515760405163ea8e4eb560e01b815260040160405180910390fd5b6001600160a01b0382166107785760405163d92e233d60e01b815260040160405180910390fd5b6001600160a01b0382165f9081526003602052604090205460ff1661060f576001600160a01b0382165f90815260016020526040812054908190036107bc57506101f45b5f6107c78383610de1565b90506103e88111156107d857506103e85b6001600160a01b0384165f8181526001602090815260409182902084905581518581529081018490523392915f80516020610e098339815191529101610604565b6001600160a01b0381165f9081526003602052604081205460ff161561084057505f919050565b6001600160a01b0382165f9081526001602052604090205480156108645780610868565b6101f45b9392505050565b335f9081526004602052604090205460ff1615801561089857505f546001600160a01b03163314155b156108b65760405163ea8e4eb560e01b815260040160405180910390fd5b8281146108d65760405163512509d360e11b815260040160405180910390fd5b60328311156108fb5760405163533dcfcf60e11b8152600481018490526024016106a3565b5f5b83811015610ad5575f85858381811061091857610918610df4565b905060200201602081019061092d9190610cca565b6001600160a01b0316036109545760405163d92e233d60e01b815260040160405180910390fd5b6103e883838381811061096957610969610df4565b9050602002013511156109ab5782828281811061098857610988610df4565b905060200201356040516367851c5360e01b81526004016106a391815260200190565b5f60015f8787858181106109c1576109c1610df4565b90506020020160208101906109d69190610cca565b6001600160a01b03166001600160a01b031681526020019081526020015f20549050838383818110610a0a57610a0a610df4565b9050602002013560015f888886818110610a2657610a26610df4565b9050602002016020810190610a3b9190610cca565b6001600160a01b0316815260208101919091526040015f205533868684818110610a6757610a67610df4565b9050602002016020810190610a7c9190610cca565b6001600160a01b03165f80516020610e0983398151915283878787818110610aa657610aa6610df4565b90506020020135604051610ac4929190918252602082015260400190565b60405180910390a3506001016108fd565b5050505050565b335f9081526004602052604090205460ff16158015610b0557505f546001600160a01b03163314155b15610b235760405163ea8e4eb560e01b815260040160405180910390fd5b6001600160a01b038216610b4a5760405163d92e233d60e01b815260040160405180910390fd5b6103e8811115610b70576040516367851c5360e01b8152600481018290526024016106a3565b6001600160a01b0382165f81815260016020908152604091829020805490859055825181815291820185905292339290915f80516020610e09833981519152910160405180910390a3505050565b610bc6610bfb565b6001600160a01b038116610bef57604051631e4fbdf760e01b81525f60048201526024016106a3565b610bf881610c27565b50565b5f546001600160a01b031633146104a75760405163118cdaa760e01b81523360048201526024016106a3565b5f80546001600160a01b038381166001600160a01b0319831681178455604051919092169283917f8be0079c531659141344cd1fd0a4f28419497f9722a3daafe3b4186f6b6457e09190a35050565b80356001600160a01b0381168114610c8c575f80fd5b919050565b5f8060408385031215610ca2575f80fd5b610cab83610c76565b915060208301358015158114610cbf575f80fd5b809150509250929050565b5f60208284031215610cda575f80fd5b61086882610c76565b5f8060408385031215610cf4575f80fd5b610cfd83610c76565b946020939093013593505050565b5f8083601f840112610d1b575f80fd5b50813567ffffffffffffffff811115610d32575f80fd5b6020830191508360208260051b8501011115610d4c575f80fd5b9250929050565b5f805f8060408587031215610d66575f80fd5b843567ffffffffffffffff80821115610d7d575f80fd5b610d8988838901610d0b565b90965094506020870135915080821115610da1575f80fd5b50610dae87828801610d0b565b95989497509550505050565b634e487b7160e01b5f52601160045260245ffd5b8181038181111561049057610490610dba565b8082018082111561049057610490610dba565b634e487b7160e01b5f52603260045260245ffdfe3816705bc8dd5a867fb8f6bc7235c2198e80c3606e1687d753c47f2e97029e86a2646970667358221220f5b855360a8654c230e1a22f0ffd50cb075144e1f44d09c72ba24fdf5d7372be64736f6c63430008180033",
        "nonce": "0x41",
        "chainId": "0x14a34"
      },
      "additionalContracts": [],
      "isFixedGasLimit": false
    },
    {
      "hash": "0x420dff0ab826ac02fbdf5f99a9f6d2516f84ee294e96f5bd80e000dc067349d7",
      "transactionType": "CREATE",
      "contractName": "MockPoolManager",
      "contractAddress": "0x7350cc2655004d32e234094c847bfac789d19408",
      "function": null,
      "arguments": null,
      "transaction": {
        "from": "0x872989f7fcd4048aca370161989d3904e37a3cb3",
        "gas": "0x1cc51",
        "value": "0x0",
        "input": "0x6080604052348015600e575f80fd5b5060ac8061001b5f395ff3fe6080604052348015600e575f80fd5b50600436106026575f3560e01c8063d68f4dd114602a575b5f80fd5b603c60353660046060565b505f908190565b604080516001600160a01b0393841681529290911660208301520160405180910390f35b5f60208284031215606f575f80fd5b503591905056fea26469706673582212201bb59e3a17c6f989f8b98a7a2a7e8f3568bb310abeb62b65c3b03be1cc69aa0a64736f6c63430008180033",
        "nonce": "0x42",
        "chainId": "0x14a34"
      },
      "additionalContracts": [],
      "isFixedGasLimit": false
    },
    {
      "hash": "0x338bd1ba45c8c66cc4153b83611e509f1c3f8cc9908256589d8f18c5a7d140e8",
      "transactionType": "CREATE",
      "contractName": "KindredHook",
      "contractAddress": "0x03c8ffc3e6820ef40d43f76f66e8b9c1a1dfad4d",
      "function": null,
      "arguments": [
        "0xb3Af55a046aC669642A8FfF10FC6492c22C17235",
        "0x7350Cc2655004d32e234094C847bfac789D19408"
      ],
      "transaction": {
        "from": "0x872989f7fcd4048aca370161989d3904e37a3cb3",
        "gas": "0x1105ef",
        "value": "0x0",
        "input": "0x60c060405234801561000f575f80fd5b50604051610fc0380380610fc083398101604081905261002e91610135565b338061005357604051631e4fbdf760e01b81525f600482015260240160405180910390fd5b61005c816100c2565b506001600160a01b0382166100845760405163d92e233d60e01b815260040160405180910390fd5b6001600160a01b0381166100ab5760405163d92e233d60e01b815260040160405180910390fd5b6001600160a01b039182166080521660a052610166565b5f80546001600160a01b03838116610100818102610100600160a81b0319851617855560405193049190911692909183917f8be0079c531659141344cd1fd0a4f28419497f9722a3daafe3b4186f6b6457e091a35050565b80516001600160a01b0381168114610130575f80fd5b919050565b5f8060408385031215610146575f80fd5b61014f8361011a565b915061015d6020840161011a565b90509250929050565b60805160a051610e086101b85f395f61029e01525f81816102e101528181610324015281816103de015281816104fb01528181610625015281816108ad0152818161094601526109f50152610e085ff3fe608060405234801561000f575f80fd5b5060043610610132575f3560e01c806382be46ba116100b4578063d44686fd11610079578063d44686fd14610288578063d5325c7f14610291578063dc4c90d314610299578063ea4979bd146102c0578063f2fde38b146102c9578063fad844c1146102dc575f80fd5b806382be46ba146102355780638456cb591461023d5780638da5cb5b1461024557806399a5d7471461026e578063c4e833ce14610281575f80fd5b8063559f05dc116100fa578063559f05dc146101d75780635c975abb146101fa5780635f6b5ebd14610204578063715018a61461021a5780637ffa7f0014610222575f80fd5b806301dc8077146101365780633f4ba83a146101625780633f6983941461016c57806345516cca146101a35780634d518a5e146101cf575b5f80fd5b610149610144366004610c50565b610303565b60405162ffffff90911681526020015b60405180910390f35b61016a61048f565b005b61017f61017a366004610cae565b6104a1565b604080516001600160e01b0319909316835262ffffff909116602083015201610159565b6101b66101b1366004610cae565b61084d565b6040516001600160e01b03199091168152602001610159565b610149601681565b6101ea6101e5366004610c50565b61088c565b6040519015158152602001610159565b5f5460ff166101ea565b61020c606481565b604051908152602001610159565b61016a6109c3565b610149610230366004610c50565b6109d4565b610149600f81565b61016a610a66565b5f5461010090046001600160a01b03165b6040516001600160a01b039091168152602001610159565b61014961027c366004610d29565b610a76565b6003610256565b61020c61035281565b610149601e81565b6102567f000000000000000000000000000000000000000000000000000000000000000081565b61020c61025881565b61016a6102d7366004610c50565b610aa1565b6102567f000000000000000000000000000000000000000000000000000000000000000081565b60405163fbac395160e01b81526001600160a01b0382811660048301525f917f00000000000000000000000000000000000000000000000000000000000000009091169063fbac395190602401602060405180830381865afa15801561036b573d5f803e3d5ffd5b505050506040513d601f19601f8201168201806040525081019061038f9190610d40565b156103bd576040516328e9b38560e01b81526001600160a01b03831660048201526024015b60405180910390fd5b604051630d47875d60e41b81526001600160a01b0383811660048301525f917f00000000000000000000000000000000000000000000000000000000000000009091169063d47875d090602401602060405180830381865afa158015610425573d5f803e3d5ffd5b505050506040513d601f19601f820116820180604052508101906104499190610d5f565b9050606481101561047f5760405163f7fe176360e01b81526001600160a01b0384166004820152602481018290526044016103b4565b61048881610a76565b9392505050565b610497610ade565b61049f610b10565b565b5f806104ab610b61565b5f60148410156104bb57876104d5565b6104c860145f8688610d76565b6104d191610d9d565b60601c5b604051630d47875d60e41b81526001600160a01b0382811660048301529192505f9182917f00000000000000000000000000000000000000000000000000000000000000009091169063d47875d090602401602060405180830381865afa925050508015610560575060408051601f3d908101601f1916820190925261055d91810190610d5f565b60015b61060157826001600160a01b03167ff1786360b37a8efe6e50f637df8568f9af54d1559fe7b519101ea27e07c6a3225f6040516105e29181526040602082018190526025908201527f4f7261636c65206661696c757265202d2066616c6c6261636b206665652061706060820152641c1b1a595960da1b608082015260a00190565b60405180910390a250630fda60e560e21b9350601e9250610843915050565b60405163fbac395160e01b81526001600160a01b03858116600483015291935083917f0000000000000000000000000000000000000000000000000000000000000000169063fbac395190602401602060405180830381865afa925050508015610688575060408051601f3d908101601f1916820190925261068591810190610d40565b60015b610694575f9150610697565b91505b50801561073a57826001600160a01b03167ff1786360b37a8efe6e50f637df8568f9af54d1559fe7b519101ea27e07c6a3228360405161070e9181526040602082018190526019908201527f4163636f756e7420626c6f636b6564206279206f7261636c6500000000000000606082015260800190565b60405180910390a26040516328e9b38560e01b81526001600160a01b03841660048201526024016103b4565b60648210156107db57826001600160a01b03167ff1786360b37a8efe6e50f637df8568f9af54d1559fe7b519101ea27e07c6a322836040516107a89181526040602082018190526012908201527152657075746174696f6e20746f6f206c6f7760701b606082015260800190565b60405180910390a260405163f7fe176360e01b81526001600160a01b0384166004820152602481018390526044016103b4565b6107e482610a76565b6040805184815262ffffff83166020820152428183015290519195506001600160a01b038516917fb8ca9be02c1d1ff61dd4b4dd6f49109915b83fef721348a39fef7f9b535f53479181900360600190a250630fda60e560e21b935050505b9550959350505050565b5f80601483101561085e5786610878565b61086b60145f8587610d76565b61087491610d9d565b60601c5b506322a8b66560e11b979650505050505050565b60405163fbac395160e01b81526001600160a01b0382811660048301525f917f00000000000000000000000000000000000000000000000000000000000000009091169063fbac395190602401602060405180830381865afa925050508015610912575060408051601f3d908101601f1916820190925261090f91810190610d40565b60015b1561092757801561092557505f92915050565b505b604051630d47875d60e41b81526001600160a01b0383811660048301527f0000000000000000000000000000000000000000000000000000000000000000169063d47875d090602401602060405180830381865afa9250505080156109a9575060408051601f3d908101601f191682019092526109a691810190610d5f565b60015b6109b457505f919050565b6064111592915050565b919050565b6109cb610ade565b61049f5f610b84565b604051630d47875d60e41b81526001600160a01b0382811660048301525f917f00000000000000000000000000000000000000000000000000000000000000009091169063d47875d090602401602060405180830381865afa925050508015610a5a575060408051601f3d908101601f19168201909252610a5791810190610d5f565b60015b61047f5750601e919050565b610a6e610ade565b61049f610bdc565b5f6103528210610a885750600f919050565b6102588210610a9957506016919050565b50601e919050565b610aa9610ade565b6001600160a01b038116610ad257604051631e4fbdf760e01b81525f60048201526024016103b4565b610adb81610b84565b50565b5f546001600160a01b0361010090910416331461049f5760405163118cdaa760e01b81523360048201526024016103b4565b610b18610c18565b5f805460ff191690557f5db9ee0a495bf2e6ff9c91a7834c1ba4fdd244a5e8aa4e537bd38aeae4b073aa335b6040516001600160a01b03909116815260200160405180910390a1565b5f5460ff161561049f5760405163d93c066560e01b815260040160405180910390fd5b5f80546001600160a01b03838116610100818102610100600160a81b0319851617855560405193049190911692909183917f8be0079c531659141344cd1fd0a4f28419497f9722a3daafe3b4186f6b6457e091a35050565b610be4610b61565b5f805460ff191660011790557f62e78cea01bee320cd4e420270b5ea74000d11b0c9f74754ebdbfc544b05a258610b443390565b5f5460ff1661049f57604051638dfc202b60e01b815260040160405180910390fd5b80356001600160a01b03811681146109be575f80fd5b5f60208284031215610c60575f80fd5b61048882610c3a565b5f8083601f840112610c79575f80fd5b50813567ffffffffffffffff811115610c90575f80fd5b602083019150836020828501011115610ca7575f80fd5b9250929050565b5f805f805f60608688031215610cc2575f80fd5b610ccb86610c3a565b9450602086013567ffffffffffffffff80821115610ce7575f80fd5b610cf389838a01610c69565b90965094506040880135915080821115610d0b575f80fd5b50610d1888828901610c69565b969995985093965092949392505050565b5f60208284031215610d39575f80fd5b5035919050565b5f60208284031215610d50575f80fd5b81518015158114610488575f80fd5b5f60208284031215610d6f575f80fd5b5051919050565b5f8085851115610d84575f80fd5b83861115610d90575f80fd5b5050820193919092039150565b6bffffffffffffffffffffffff198135818116916014851015610dca5780818660140360031b1b83161692505b50509291505056fea2646970667358221220cc3f8979f0d9ae9cb70d2064940551949f8f3e18442eba90c1e8728d981c3a9864736f6c63430008180033000000000000000000000000b3af55a046ac669642a8fff10fc6492c22c172350000000000000000000000007350cc2655004d32e234094c847bfac789d19408",
        "nonce": "0x43",
        "chainId": "0x14a34"
      },
      "additionalContracts": [],
      "isFixedGasLimit": false
    },
    {
      "hash": "0x939d8568878c6605e0a68a65cb486d9b9d90145bdcc7ad5fdcf22f211f10434d",
      "transactionType": "CALL",
      "contractName": "ReputationOracle",
      "contractAddress": "0xb3af55a046ac669642a8fff10fc6492c22c17235",
      "function": "setScore(address,uint256)",
      "arguments": [
        "0x872989F7fCd4048acA370161989d3904E37A3cB3",
        "900"
      ],
      "transaction": {
        "from": "0x872989f7fcd4048aca370161989d3904e37a3cb3",
        "to": "0xb3af55a046ac669642a8fff10fc6492c22c17235",
        "gas": "0x1064e",
        "value": "0x0",
        "input": "0xee0fcc75000000000000000000000000872989f7fcd4048aca370161989d3904e37a3cb30000000000000000000000000000000000000000000000000000000000000384",
        "nonce": "0x44",
        "chainId": "0x14a34"
      },
      "additionalContracts": [],
      "isFixedGasLimit": false
    },
    {
      "hash": "0xc89e755ca009ae4ecc55848ed94e44cb61ab5b42dcd51b043753ed3e7da4a1b7",
      "transactionType": "CALL",
      "contractName": "ReputationOracle",
      "contractAddress": "0xb3af55a046ac669642a8fff10fc6492c22c17235",
      "function": "setScore(address,uint256)",
      "arguments": [
        "0x1111111111111111111111111111111111111111",
        "700"
      ],
      "transaction": {
        "from": "0x872989f7fcd4048aca370161989d3904e37a3cb3",
        "to": "0xb3af55a046ac669642a8fff10fc6492c22c17235",
        "gas": "0x1064e",
        "value": "0x0",
        "input": "0xee0fcc75000000000000000000000000111111111111111111111111111111111111111100000000000000000000000000000000000000000000000000000000000002bc",
        "nonce": "0x45",
        "chainId": "0x14a34"
      },
      "additionalContracts": [],
      "isFixedGasLimit": false
    },
    {
      "hash": "0xfe7c5c0ff77e541548feecaa6e7d0954f8e09c3e9b249b0a957401dffa8e4b73",
      "transactionType": "CALL",
      "contractName": "ReputationOracle",
      "contractAddress": "0xb3af55a046ac669642a8fff10fc6492c22c17235",
      "function": "setScore(address,uint256)",
      "arguments": [
        "0x2222222222222222222222222222222222222222",
        "500"
      ],
      "transaction": {
        "from": "0x872989f7fcd4048aca370161989d3904e37a3cb3",
        "to": "0xb3af55a046ac669642a8fff10fc6492c22c17235",
        "gas": "0x1064e",
        "value": "0x0",
        "input": "0xee0fcc75000000000000000000000000222222222222222222222222222222222222222200000000000000000000000000000000000000000000000000000000000001f4",
        "nonce": "0x46",
        "chainId": "0x14a34"
      },
      "additionalContracts": [],
      "isFixedGasLimit": false
    }
  ],
  "receipts": [
    {
      "status": "0x1",
      "cumulativeGasUsed": "0x7bdc4b",
      "logs": [
        {
          "address": "0xb3af55a046ac669642a8fff10fc6492c22c17235",
          "topics": [
            "0x8be0079c531659141344cd1fd0a4f28419497f9722a3daafe3b4186f6b6457e0",
            "0x0000000000000000000000000000000000000000000000000000000000000000",
            "0x000000000000000000000000872989f7fcd4048aca370161989d3904e37a3cb3"
          ],
          "data": "0x",
          "blockHash": "0x0000000000000000000000000000000000000000000000000000000000000000",
          "blockNumber": "0x239fffc",
          "blockTimestamp": "0x69875ed8",
          "transactionHash": "0xa2da3700819f8ba8759aca426f7b56a43933364e8fcc539be60b7af600724c37",
          "transactionIndex": "0xd",
          "logIndex": "0x63",
          "removed": false
        }
      ],
      "logsBloom": "0x00000000000000000000000000000000000000000000000000800000000000000000000000000000000000000000000000000000000000000000000000000000000000000000000000000000000000000001000000000000000040000000000000040000020000000000000000000800000000000000400000000000000000400000000000000000000000000000000000000000000000000000000000000000000000000000000000000000000000000000000000000000000000000000000000000000000000040000000000000000000000002000000000000800000020000000000000000000000000000000000000000000000000000000000000000000",
      "type": "0x2",
      "transactionHash": "0xa2da3700819f8ba8759aca426f7b56a43933364e8fcc539be60b7af600724c37",
      "transactionIndex": "0xd",
      "blockHash": "0x0000000000000000000000000000000000000000000000000000000000000000",
      "blockNumber": "0x239fffc",
      "gasUsed": "0xdb0af",
      "effectiveGasPrice": "0x12502c",
      "blobGasUsed": "0x97818",
      "from": "0x872989f7fcd4048aca370161989d3904e37a3cb3",
      "to": null,
      "contractAddress": "0xb3af55a046ac669642a8fff10fc6492c22c17235",
      "daFootprintGasScalar": "0x138",
      "l1BaseFeeScalar": "0x44d",
      "l1BlobBaseFee": "0x38a573a",
      "l1BlobBaseFeeScalar": "0xa118b",
      "l1Fee": "0x964e9d5ed",
      "l1GasPrice": "0x4226074d",
      "l1GasUsed": "0x7c54"
    },
    {
      "status": "0x1",
      "cumulativeGasUsed": "0x80a0bc",
      "logs": [],
      "logsBloom": "0x00000000000000000000000000000000000000000000000000000000000000000000000000000000000000000000000000000000000000000000000000000000000000000000000000000000000000000000000000000000000000000000000000000000000000000000000000000000000000000000000000000000000000000000000000000000000000000000000000000000000000000000000000000000000000000000000000000000000000000000000000000000000000000000000000000000000000000000000000000000000000000000000000000000000000000000000000000000000000000000000000000000000000000000000000000000",
      "type": "0x2",
      "transactionHash": "0x420dff0ab826ac02fbdf5f99a9f6d2516f84ee294e96f5bd80e000dc067349d7",
      "transactionIndex": "0x10",
      "blockHash": "0xf8e719d5c6ffd776da2bb81375536be3cb9b9692a924c915999ca7c64bdd4333",
      "blockNumber": "0x239fffc",
      "gasUsed": "0x16217",
      "effectiveGasPrice": "0x12502c",
      "blobGasUsed": "0xe8c8",
      "from": "0x872989f7fcd4048aca370161989d3904e37a3cb3",
      "to": null,
      "contractAddress": "0x7350cc2655004d32e234094c847bfac789d19408",
      "daFootprintGasScalar": "0x138",
      "l1BaseFeeScalar": "0x44d",
      "l1BlobBaseFee": "0x38a573a",
      "l1BlobBaseFeeScalar": "0xa118b",
      "l1Fee": "0x29efd5996",
      "l1GasPrice": "0x4226074d",
      "l1GasUsed": "0xbfa"
    },
    {
      "status": "0x1",
      "cumulativeGasUsed": "0x8db8fe",
      "logs": [
        {
          "address": "0x03c8ffc3e6820ef40d43f76f66e8b9c1a1dfad4d",
          "topics": [
            "0x8be0079c531659141344cd1fd0a4f28419497f9722a3daafe3b4186f6b6457e0",
            "0x0000000000000000000000000000000000000000000000000000000000000000",
            "0x000000000000000000000000872989f7fcd4048aca370161989d3904e37a3cb3"
          ],
          "data": "0x",
          "blockHash": "0x0000000000000000000000000000000000000000000000000000000000000000",
          "blockNumber": "0x239fffc",
          "blockTimestamp": "0x69875ed8",
          "transactionHash": "0x338bd1ba45c8c66cc4153b83611e509f1c3f8cc9908256589d8f18c5a7d140e8",
          "transactionIndex": "0x11",
          "logIndex": "0x67",
          "removed": false
        }
      ],
      "logsBloom": "0x00000000000000000000000000000000000000000000000000800000000000000000000000000000000000000000000000000000001000000000000000000000000000000000000000000000000000000001000000000000000040000000000000040000020000000000000000000800000000000000000000000000000000400000000000000000000000000000000000000000000000000000000000800000000000000000000000000000000000000000000000000000000000000000000000000000000000040000000000000000000000000000000000000000000020000000040000000000000000000000000000000000000000000000000000000000",
      "type": "0x2",
      "transactionHash": "0x338bd1ba45c8c66cc4153b83611e509f1c3f8cc9908256589d8f18c5a7d140e8",
      "transactionIndex": "0x11",
      "blockHash": "0x0000000000000000000000000000000000000000000000000000000000000000",
      "blockNumber": "0x239fffc",
      "gasUsed": "0xd1842",
      "effectiveGasPrice": "0x12502c",
      "blobGasUsed": "0xa4d60",
      "from": "0x872989f7fcd4048aca370161989d3904e37a3cb3",
      "to": null,
      "contractAddress": "0x03c8ffc3e6820ef40d43f76f66e8b9c1a1dfad4d",
      "daFootprintGasScalar": "0x138",
      "l1BaseFeeScalar": "0x44d",
      "l1BlobBaseFee": "0x38a573a",
      "l1BlobBaseFeeScalar": "0xa118b",
      "l1Fee": "0x175745fa48",
      "l1GasPrice": "0x4226074d",
      "l1GasUsed": "0x8741"
    },
    {
      "status": "0x1",
      "cumulativeGasUsed": "0x8e76e6",
      "logs": [
        {
          "address": "0xb3af55a046ac669642a8fff10fc6492c22c17235",
          "topics": [
            "0x3816705bc8dd5a867fb8f6bc7235c2198e80c3606e1687d753c47f2e97029e86",
            "0x000000000000000000000000872989f7fcd4048aca370161989d3904e37a3cb3",
            "0x000000000000000000000000872989f7fcd4048aca370161989d3904e37a3cb3"
          ],
          "data": "0x00000000000000000000000000000000000000000000000000000000000000000000000000000000000000000000000000000000000000000000000000000384",
          "blockHash": "0x0000000000000000000000000000000000000000000000000000000000000000",
          "blockNumber": "0x239fffc",
          "blockTimestamp": "0x69875ed8",
          "transactionHash": "0x939d8568878c6605e0a68a65cb486d9b9d90145bdcc7ad5fdcf22f211f10434d",
          "transactionIndex": "0x12",
          "logIndex": "0x68",
          "removed": false
        }
      ],
      "logsBloom": "0x00000000000000000000000000000000000000000000000000000000000000000000000000000000000000000000000000000000000000000000000000000000000000000000000000000000000002000000000000000000000040000000000000040000000000000000000000000000000000000000400000000000000000000000000000000000000000000000000000000000000000000000000000000000000000000000000000000000000000000000000000000000000000000000000000000000000000040000000000000000000000002800000000000800000000000000000000000000000000000000000000000000000000000000000000200000",
      "type": "0x2",
      "transactionHash": "0x939d8568878c6605e0a68a65cb486d9b9d90145bdcc7ad5fdcf22f211f10434d",
      "transactionIndex": "0x12",
      "blockHash": "0x0000000000000000000000000000000000000000000000000000000000000000",
      "blockNumber": "0x239fffc",
      "gasUsed": "0xbde8",
      "effectiveGasPrice": "0x12502c",
      "blobGasUsed": "0x79e0",
      "from": "0x872989f7fcd4048aca370161989d3904e37a3cb3",
      "to": "0xb3af55a046ac669642a8fff10fc6492c22c17235",
      "contractAddress": null,
      "daFootprintGasScalar": "0x138",
      "l1BaseFeeScalar": "0x44d",
      "l1BlobBaseFee": "0x38a573a",
      "l1BlobBaseFeeScalar": "0xa118b",
      "l1Fee": "0x175745fa48",
      "l1GasPrice": "0x4226074d",
      "l1GasUsed": "0x640"
    },
    {
      "status": "0x1",
      "cumulativeGasUsed": "0x8f34ce",
      "logs": [
        {
          "address": "0xb3af55a046ac669642a8fff10fc6492c22c17235",
          "topics": [
            "0x3816705bc8dd5a867fb8f6bc7235c2198e80c3606e1687d753c47f2e97029e86",
            "0x0000000000000000000000001111111111111111111111111111111111111111",
            "0x000000000000000000000000872989f7fcd4048aca370161989d3904e37a3cb3"
          ],
          "data": "0x000000000000000000000000000000000000000000000000000000000000000000000000000000000000000000000000000000000000000000000000000002bc",
          "blockHash": "0x0000000000000000000000000000000000000000000000000000000000000000",
          "blockNumber": "0x239fffc",
          "blockTimestamp": "0x69875ed8",
          "transactionHash": "0xc89e755ca009ae4ecc55848ed94e44cb61ab5b42dcd51b043753ed3e7da4a1b7",
          "transactionIndex": "0x13",
          "logIndex": "0x69",
          "removed": false
        }
      ],
      "logsBloom": "0x00000000000000000000000000000000000000000000000000000000000000000000000000000000000000000000000000000000000000000000000000000000000000000000000000000000000002000000000000000000000040000000000000040000000000000000000000000000000000000000400000000000000200000000000000000000000000000000000000000000000000000000000000000000240000000000000000000000000000000000000000000000000000000000000000000000000000040000000000000000000000002800000000000800000000000000000000000000000000000000000000000000000000000000000000200000",
      "type": "0x2",
      "transactionHash": "0xc89e755ca009ae4ecc55848ed94e44cb61ab5b42dcd51b043753ed3e7da4a1b7",
      "transactionIndex": "0x13",
      "blockHash": "0x0000000000000000000000000000000000000000000000000000000000000000",
      "blockNumber": "0x239fffc",
      "gasUsed": "0xbde8",
      "effectiveGasPrice": "0x12502c",
      "blobGasUsed": "0x79e0",
      "from": "0x872989f7fcd4048aca370161989d3904e37a3cb3",
      "to": "0xb3af55a046ac669642a8fff10fc6492c22c17235",
      "contractAddress": null,
      "daFootprintGasScalar": "0x138",
      "l1BaseFeeScalar": "0x44d",
      "l1BlobBaseFee": "0x38a573a",
      "l1BlobBaseFeeScalar": "0xa118b",
      "l1Fee": "0x175745fa48",
      "l1GasPrice": "0x4226074d",
      "l1GasUsed": "0x640"
    },
    {
      "status": "0x1",
      "cumulativeGasUsed": "0x8ff2b6",
      "logs": [
        {
          "address": "0xb3af55a046ac669642a8fff10fc6492c22c17235",
          "topics": [
            "0x3816705bc8dd5a867fb8f6bc7235c2198e80c3606e1687d753c47f2e97029e86",
            "0x0000000000000000000000002222222222222222222222222222222222222222",
            "0x000000000000000000000000872989f7fcd4048aca370161989d3904e37a3cb3"
          ],
          "data": "0x000000000000000000000000000000000000000000000000000000000000000000000000000000000000000000000000000000000000000000000000000001f4",
          "blockHash": "0x0000000000000000000000000000000000000000000000000000000000000000",
          "blockNumber": "0x239fffc",
          "blockTimestamp": "0x69875ed8",
          "transactionHash": "0xfe7c5c0ff77e541548feecaa6e7d0954f8e09c3e9b249b0a957401dffa8e4b73",
          "transactionIndex": "0x14",
          "logIndex": "0x6a",
          "removed": false
        }
      ],
      "logsBloom": "0x00000000000000000000000000000000000000000000000000000000000000000000000000000000000000000000000000080000000000000000000020000000000000000000000000000000000002000000000000000000000040000000000000040000000000000000000000000000000000000000400000000000000000000000000000000000000000000000000000000000000000000000000000000000000000000000000000000000000000000000000000000000000000000000000000000000000000040000000000000000000000002800000000000800000000000000000000000000000000000000000000000800000000000000000000200000",
      "type": "0x2",
      "transactionHash": "0xfe7c5c0ff77e541548feecaa6e7d0954f8e09c3e9b249b0a957401dffa8e4b73",
      "transactionIndex": "0x14",
      "blockHash": "0x0000000000000000000000000000000000000000000000000000000000000000",
      "blockNumber": "0x239fffc",
      "gasUsed": "0xbde8",
      "effectiveGasPrice": "0x12502c",
      "blobGasUsed": "0x79e0",
      "from": "0x872989f7fcd4048aca370161989d3904e37a3cb3",
      "to": "0xb3af55a046ac669642a8fff10fc6492c22c17235",
      "contractAddress": null,
      "daFootprintGasScalar": "0x138",
      "l1BaseFeeScalar": "0x44d",
      "l1BlobBaseFee": "0x38a573a",
      "l1BlobBaseFeeScalar": "0xa118b",
      "l1Fee": "0x175745fa48",
      "l1GasPrice": "0x4226074d",
      "l1GasUsed": "0x640"
    }
  ],
  "libraries": [],
  "pending": [],
  "returns": {},
  "timestamp": 1770479320,
  "chain": 84532,
  "commit": "dd0051b"
}